{
  "_format": "hh-sol-artifact-1",
  "contractName": "WavePortal",
  "sourceName": "contracts/WavePortal.sol",
  "abi": [
    {
      "inputs": [],
      "stateMutability": "payable",
      "type": "constructor"
    },
    {
      "anonymous": false,
      "inputs": [
        {
          "indexed": true,
          "internalType": "address",
          "name": "from",
          "type": "address"
        },
        {
          "indexed": false,
          "internalType": "uint256",
          "name": "timestamp",
          "type": "uint256"
        },
        {
          "indexed": false,
          "internalType": "string",
          "name": "message",
          "type": "string"
        }
      ],
      "name": "NewWave",
      "type": "event"
    },
    {
      "inputs": [],
      "name": "getAllWaves",
      "outputs": [
        {
          "components": [
            {
              "internalType": "address",
              "name": "waver",
              "type": "address"
            },
            {
              "internalType": "string",
              "name": "message",
              "type": "string"
            },
            {
              "internalType": "uint256",
              "name": "timestamp",
              "type": "uint256"
            }
          ],
          "internalType": "struct WavePortal.Wave[]",
          "name": "",
          "type": "tuple[]"
        }
      ],
      "stateMutability": "view",
      "type": "function"
    },
    {
      "inputs": [],
      "name": "getAllWavesData",
      "outputs": [
        {
          "internalType": "string",
          "name": "",
          "type": "string"
        }
      ],
      "stateMutability": "view",
      "type": "function"
    },
    {
      "inputs": [],
      "name": "getTotalWaves",
      "outputs": [
        {
          "internalType": "uint256",
          "name": "",
          "type": "uint256"
        }
      ],
      "stateMutability": "view",
      "type": "function"
    },
    {
      "inputs": [
        {
          "internalType": "string",
          "name": "_message",
          "type": "string"
        }
      ],
      "name": "wave",
      "outputs": [],
      "stateMutability": "nonpayable",
      "type": "function"
    }
  ],
  "bytecode": "0x608060405262000033604051806060016040528060228152602001620020ec602291396200003960201b620007581760201c565b620001c3565b620000d9816040516024016200005091906200019f565b6040516020818303038152906040527f41304fac000000000000000000000000000000000000000000000000000000007bffffffffffffffffffffffffffffffffffffffffffffffffffffffff19166020820180517bffffffffffffffffffffffffffffffffffffffffffffffffffffffff8381831617835250505050620000dc60201b60201c565b50565b60008151905060006a636f6e736f6c652e6c6f679050602083016000808483855afa5050505050565b600081519050919050565b600082825260208201905092915050565b60005b838110156200014157808201518184015260208101905062000124565b60008484015250505050565b6000601f19601f8301169050919050565b60006200016b8262000105565b62000177818562000110565b93506200018981856020860162000121565b62000194816200014d565b840191505092915050565b60006020820190508181036000830152620001bb81846200015e565b905092915050565b611f1980620001d36000396000f3fe608060405234801561001057600080fd5b506004361061004c5760003560e01c8063449d46c01461005157806367f106461461006d5780639a2cdc081461008b578063bd43a908146100a9575b600080fd5b61006b60048036038101906100669190611033565b6100c7565b005b61007561037c565b60405161008291906110fb565b60405180910390f35b6100936105bc565b6040516100a09190611136565b60405180910390f35b6100b1610607565b6040516100be91906112fd565b60405180910390f35b60008060003373ffffffffffffffffffffffffffffffffffffffff1673ffffffffffffffffffffffffffffffffffffffff168152602001908152602001600020540361011757610116336107f1565b5b610120336108f1565b600260405180606001604052803373ffffffffffffffffffffffffffffffffffffffff16815260200183815260200142815250908060018154018082558091505060019003906000526020600020906003020160009091909190915060008201518160000160006101000a81548173ffffffffffffffffffffffffffffffffffffffff021916908373ffffffffffffffffffffffffffffffffffffffff16021790555060208201518160010190816101d8919061152b565b506040820151816002015550503373ffffffffffffffffffffffffffffffffffffffff167f5f7e16dc676677766a70e9c5628aa6c54ddb8b6e5188e2ae1e1f17f1ffbea716428360405161022d9291906115fd565b60405180910390a26000655af3107a4000905047811115610283576040517f08c379a000000000000000000000000000000000000000000000000000000000815260040161027a9061169f565b60405180910390fd5b60003373ffffffffffffffffffffffffffffffffffffffff16826040516102a9906116f0565b60006040518083038185875af1925050503d80600081146102e6576040519150601f19603f3d011682016040523d82523d6000602084013e6102eb565b606091505b505090508061032f576040517f08c379a000000000000000000000000000000000000000000000000000000000815260040161032690611777565b60405180910390fd5b6103776040518060400160405280601581526020017f2573206861732077617665642025642074696d657300000000000000000000008152503361037233610994565b610a0c565b505050565b606060006040518060400160405280600181526020017f5b00000000000000000000000000000000000000000000000000000000000000815250905060005b6001805490508110156105735760008111156103f457816040516020016103e291906117f9565b60405160208183030381529060405291505b816040516020016104059190611845565b6040516020818303038152906040529150816040516020016104279190611891565b604051602081830303815290604052915081610487600183815481106104505761044f6118b7565b5b906000526020600020906002020160000160009054906101000a900473ffffffffffffffffffffffffffffffffffffffff16610aab565b6040516020016104989291906118e6565b6040516020818303038152906040529150816040516020016104ba9190611930565b6040516020818303038152906040529150816040516020016104dc919061197c565b60405160208183030381529060405291508161051c60018381548110610505576105046118b7565b5b906000526020600020906002020160010154610c6e565b60405160200161052d9291906118e6565b60405160208183030381529060405291508160405160200161054f91906119c8565b6040516020818303038152906040529150808061056b90611a1d565b9150506103bb565b50806040516020016105859190611a8b565b6040516020818303038152906040529050806040516020016105a79190611ab1565b60405160208183030381529060405291505090565b60006105ff6040518060400160405280601781526020017f5765206861766520256420746f74616c20776176657321000000000000000000815250600354610dce565b600354905090565b60606002805480602002602001604051908101604052809291908181526020016000905b8282101561074f57838290600052602060002090600302016040518060600160405290816000820160009054906101000a900473ffffffffffffffffffffffffffffffffffffffff1673ffffffffffffffffffffffffffffffffffffffff1673ffffffffffffffffffffffffffffffffffffffff1681526020016001820180546106b49061134e565b80601f01602080910402602001604051908101604052809291908181526020018280546106e09061134e565b801561072d5780601f106107025761010080835404028352916020019161072d565b820191906000526020600020905b81548152906001019060200180831161071057829003601f168201915b505050505081526020016002820154815250508152602001906001019061062b565b50505050905090565b6107ee8160405160240161076c91906110fb565b6040516020818303038152906040527f41304fac000000000000000000000000000000000000000000000000000000007bffffffffffffffffffffffffffffffffffffffffffffffffffffffff19166020820180517bffffffffffffffffffffffffffffffffffffffffffffffffffffffff8381831617835250505050610e6a565b50565b600180805490506108029190611ac8565b6000808373ffffffffffffffffffffffffffffffffffffffff1673ffffffffffffffffffffffffffffffffffffffff16815260200190815260200160002081905550600160405180604001604052808373ffffffffffffffffffffffffffffffffffffffff1681526020016000815250908060018154018082558091505060019003906000526020600020906002020160009091909190915060008201518160000160006101000a81548173ffffffffffffffffffffffffffffffffffffffff021916908373ffffffffffffffffffffffffffffffffffffffff16021790555060208201518160010155505050565b60018060016000808573ffffffffffffffffffffffffffffffffffffffff1673ffffffffffffffffffffffffffffffffffffffff1681526020019081526020016000205461093f9190611afc565b815481106109505761094f6118b7565b5b906000526020600020906002020160010160008282546109709190611ac8565b9250508190555060016003600082825461098a9190611ac8565b9250508190555050565b60006001806000808573ffffffffffffffffffffffffffffffffffffffff1673ffffffffffffffffffffffffffffffffffffffff168152602001908152602001600020546109e29190611afc565b815481106109f3576109f26118b7565b5b9060005260206000209060020201600101549050919050565b610aa6838383604051602401610a2493929190611b3f565b6040516020818303038152906040527f0d26b925000000000000000000000000000000000000000000000000000000007bffffffffffffffffffffffffffffffffffffffffffffffffffffffff19166020820180517bffffffffffffffffffffffffffffffffffffffffffffffffffffffff8381831617835250505050610e6a565b505050565b60606000602867ffffffffffffffff811115610aca57610ac9610f08565b5b6040519080825280601f01601f191660200182016040528015610afc5781602001600182028036833780820191505090505b50905060005b6014811015610c64576000816013610b1a9190611afc565b6008610b269190611b7d565b6002610b329190611cf2565b8573ffffffffffffffffffffffffffffffffffffffff16610b539190611d6c565b60f81b9050600060108260f81c610b6a9190611daa565b60f81b905060008160f81c6010610b819190611ddb565b8360f81c610b8f9190611e18565b60f81b9050610b9d82610e93565b85856002610bab9190611b7d565b81518110610bbc57610bbb6118b7565b5b60200101907effffffffffffffffffffffffffffffffffffffffffffffffffffffffffffff1916908160001a905350610bf481610e93565b856001866002610c049190611b7d565b610c0e9190611ac8565b81518110610c1f57610c1e6118b7565b5b60200101907effffffffffffffffffffffffffffffffffffffffffffffffffffffffffffff1916908160001a9053505050508080610c5c90611a1d565b915050610b02565b5080915050919050565b606060008203610cb5576040518060400160405280600181526020017f30000000000000000000000000000000000000000000000000000000000000008152509050610dc9565b600082905060005b60008214610ce7578080610cd090611a1d565b915050600a82610ce09190611d6c565b9150610cbd565b60008167ffffffffffffffff811115610d0357610d02610f08565b5b6040519080825280601f01601f191660200182016040528015610d355781602001600182028036833780820191505090505b5090505b60008514610dc257600182610d4e9190611afc565b9150600a85610d5d9190611e4d565b6030610d699190611ac8565b60f81b818381518110610d7f57610d7e6118b7565b5b60200101907effffffffffffffffffffffffffffffffffffffffffffffffffffffffffffff1916908160001a905350600a85610dbb9190611d6c565b9450610d39565b8093505050505b919050565b610e668282604051602401610de4929190611e7e565b6040516020818303038152906040527fb60e72cc000000000000000000000000000000000000000000000000000000007bffffffffffffffffffffffffffffffffffffffffffffffffffffffff19166020820180517bffffffffffffffffffffffffffffffffffffffffffffffffffffffff8381831617835250505050610e6a565b5050565b60008151905060006a636f6e736f6c652e6c6f679050602083016000808483855afa5050505050565b6000600a8260f81c60ff161015610ebe5760308260f81c610eb49190611eae565b60f81b9050610ed4565b60578260f81c610ece9190611eae565b60f81b90505b919050565b6000604051905090565b600080fd5b600080fd5b600080fd5b600080fd5b6000601f19601f8301169050919050565b7f4e487b7100000000000000000000000000000000000000000000000000000000600052604160045260246000fd5b610f4082610ef7565b810181811067ffffffffffffffff82111715610f5f57610f5e610f08565b5b80604052505050565b6000610f72610ed9565b9050610f7e8282610f37565b919050565b600067ffffffffffffffff821115610f9e57610f9d610f08565b5b610fa782610ef7565b9050602081019050919050565b82818337600083830152505050565b6000610fd6610fd184610f83565b610f68565b905082815260208101848484011115610ff257610ff1610ef2565b5b610ffd848285610fb4565b509392505050565b600082601f83011261101a57611019610eed565b5b813561102a848260208601610fc3565b91505092915050565b60006020828403121561104957611048610ee3565b5b600082013567ffffffffffffffff81111561106757611066610ee8565b5b61107384828501611005565b91505092915050565b600081519050919050565b600082825260208201905092915050565b60005b838110156110b657808201518184015260208101905061109b565b60008484015250505050565b60006110cd8261107c565b6110d78185611087565b93506110e7818560208601611098565b6110f081610ef7565b840191505092915050565b6000602082019050818103600083015261111581846110c2565b905092915050565b6000819050919050565b6111308161111d565b82525050565b600060208201905061114b6000830184611127565b92915050565b600081519050919050565b600082825260208201905092915050565b6000819050602082019050919050565b600073ffffffffffffffffffffffffffffffffffffffff82169050919050565b60006111a88261117d565b9050919050565b6111b88161119d565b82525050565b600082825260208201905092915050565b60006111da8261107c565b6111e481856111be565b93506111f4818560208601611098565b6111fd81610ef7565b840191505092915050565b6112118161111d565b82525050565b600060608301600083015161122f60008601826111af565b506020830151848203602086015261124782826111cf565b915050604083015161125c6040860182611208565b508091505092915050565b60006112738383611217565b905092915050565b6000602082019050919050565b600061129382611151565b61129d818561115c565b9350836020820285016112af8561116d565b8060005b858110156112eb57848403895281516112cc8582611267565b94506112d78361127b565b925060208a019950506001810190506112b3565b50829750879550505050505092915050565b600060208201905081810360008301526113178184611288565b905092915050565b7f4e487b7100000000000000000000000000000000000000000000000000000000600052602260045260246000fd5b6000600282049050600182168061136657607f821691505b6020821081036113795761137861131f565b5b50919050565b60008190508160005260206000209050919050565b60006020601f8301049050919050565b600082821b905092915050565b6000600883026113e17fffffffffffffffffffffffffffffffffffffffffffffffffffffffffffffffff826113a4565b6113eb86836113a4565b95508019841693508086168417925050509392505050565b6000819050919050565b600061142861142361141e8461111d565b611403565b61111d565b9050919050565b6000819050919050565b6114428361140d565b61145661144e8261142f565b8484546113b1565b825550505050565b600090565b61146b61145e565b611476818484611439565b505050565b5b8181101561149a5761148f600082611463565b60018101905061147c565b5050565b601f8211156114df576114b08161137f565b6114b984611394565b810160208510156114c8578190505b6114dc6114d485611394565b83018261147b565b50505b505050565b600082821c905092915050565b6000611502600019846008026114e4565b1980831691505092915050565b600061151b83836114f1565b9150826002028217905092915050565b6115348261107c565b67ffffffffffffffff81111561154d5761154c610f08565b5b611557825461134e565b61156282828561149e565b600060209050601f8311600181146115955760008415611583578287015190505b61158d858261150f565b8655506115f5565b601f1984166115a38661137f565b60005b828110156115cb578489015182556001820191506020850194506020810190506115a6565b868310156115e857848901516115e4601f8916826114f1565b8355505b6001600288020188555050505b505050505050565b60006040820190506116126000830185611127565b818103602083015261162481846110c2565b90509392505050565b7f547279696e6720746f207769746864726177206d6f7265206d6f6e657920746860008201527f616e2074686520636f6e7472616374206861732e000000000000000000000000602082015250565b6000611689603483611087565b91506116948261162d565b604082019050919050565b600060208201905081810360008301526116b88161167c565b9050919050565b600081905092915050565b50565b60006116da6000836116bf565b91506116e5826116ca565b600082019050919050565b60006116fb826116cd565b9150819050919050565b7f4661696c656420746f207769746864726177206d6f6e65792066726f6d20636f60008201527f6e74726163742e00000000000000000000000000000000000000000000000000602082015250565b6000611761602783611087565b915061176c82611705565b604082019050919050565b6000602082019050818103600083015261179081611754565b9050919050565b600081519050919050565b60006117ad82611797565b6117b781856116bf565b93506117c7818560208601611098565b80840191505092915050565b7f2c00000000000000000000000000000000000000000000000000000000000000815250565b600061180582846117a2565b9150611810826117d3565b60018201915081905092915050565b7f7b2261646472657373223a000000000000000000000000000000000000000000815250565b600061185182846117a2565b915061185c8261181f565b600b8201915081905092915050565b7f2200000000000000000000000000000000000000000000000000000000000000815250565b600061189d82846117a2565b91506118a88261186b565b60018201915081905092915050565b7f4e487b7100000000000000000000000000000000000000000000000000000000600052603260045260246000fd5b60006118f282856117a2565b91506118fe82846117a2565b91508190509392505050565b7f222c000000000000000000000000000000000000000000000000000000000000815250565b600061193c82846117a2565b91506119478261190a565b60028201915081905092915050565b7f227761766573223a000000000000000000000000000000000000000000000000815250565b600061198882846117a2565b915061199382611956565b60088201915081905092915050565b7f7d00000000000000000000000000000000000000000000000000000000000000815250565b60006119d482846117a2565b91506119df826119a2565b60018201915081905092915050565b7f4e487b7100000000000000000000000000000000000000000000000000000000600052601160045260246000fd5b6000611a288261111d565b91507fffffffffffffffffffffffffffffffffffffffffffffffffffffffffffffffff8203611a5a57611a596119ee565b5b600182019050919050565b7f5d00000000000000000000000000000000000000000000000000000000000000815250565b6000611a9782846117a2565b9150611aa282611a65565b60018201915081905092915050565b6000611abd82846117a2565b915081905092915050565b6000611ad38261111d565b9150611ade8361111d565b9250828201905080821115611af657611af56119ee565b5b92915050565b6000611b078261111d565b9150611b128361111d565b9250828203905081811115611b2a57611b296119ee565b5b92915050565b611b398161119d565b82525050565b60006060820190508181036000830152611b5981866110c2565b9050611b686020830185611b30565b611b756040830184611127565b949350505050565b6000611b888261111d565b9150611b938361111d565b9250828202611ba18161111d565b91508282048414831517611bb857611bb76119ee565b5b5092915050565b60008160011c9050919050565b6000808291508390505b6001851115611c1657808604811115611bf257611bf16119ee565b5b6001851615611c015780820291505b8081029050611c0f85611bbf565b9450611bd6565b94509492505050565b600082611c2f5760019050611ceb565b81611c3d5760009050611ceb565b8160018114611c535760028114611c5d57611c8c565b6001915050611ceb565b60ff841115611c6f57611c6e6119ee565b5b8360020a915084821115611c8657611c856119ee565b5b50611ceb565b5060208310610133831016604e8410600b8410161715611cc15782820a905083811115611cbc57611cbb6119ee565b5b611ceb565b611cce8484846001611bcc565b92509050818404811115611ce557611ce46119ee565b5b81810290505b9392505050565b6000611cfd8261111d565b9150611d088361111d565b9250611d357fffffffffffffffffffffffffffffffffffffffffffffffffffffffffffffffff8484611c1f565b905092915050565b7f4e487b7100000000000000000000000000000000000000000000000000000000600052601260045260246000fd5b6000611d778261111d565b9150611d828361111d565b925082611d9257611d91611d3d565b5b828204905092915050565b600060ff82169050919050565b6000611db582611d9d565b9150611dc083611d9d565b925082611dd057611dcf611d3d565b5b828204905092915050565b6000611de682611d9d565b9150611df183611d9d565b9250828202611dff81611d9d565b9150808214611e1157611e106119ee565b5b5092915050565b6000611e2382611d9d565b9150611e2e83611d9d565b9250828203905060ff811115611e4757611e466119ee565b5b92915050565b6000611e588261111d565b9150611e638361111d565b925082611e7357611e72611d3d565b5b828206905092915050565b60006040820190508181036000830152611e9881856110c2565b9050611ea76020830184611127565b9392505050565b6000611eb982611d9d565b9150611ec483611d9d565b9250828201905060ff811115611edd57611edc6119ee565b5b9291505056fea2646970667358221220ed3ec5fd54caad79e67bfcacc0da86592e881c30928ba5717bfa6e8d5ca12a5364736f6c63430008110033596f2c204920616d206120636f6e747261637420616e64204920616d20736d617274",
  "linkReferences": {},
  "deployedLinkReferences": {}
}